:100000006F000065000000004A0100004C01000084
:1000100000000000000000000000000000000000E0
:1000200000000000000000000000000000000000D0
:100030004E060000000000004E0600000000000018
:100040004E0600004E0600004E0600004E06000060
:100050004E0600004E0600004E0600004E06000050
:100060004E0600004E0600004E0600004E06000040
:100070004E0600004E0600004E0600004E06000030
:100080004E0600004E0600004E0600004E06000020
:100090004E0600004E0600004E0600000000000064
:1000A000511126C022C206C4828282441244A24058
:1000B000310182802A86014593F6150091C232955E
:1000C00085810606F5F9828000000000634E050276
:1000D00063C305042E86AA857D5515C285466378BF
:1000E000B6006356C00006068606E36CB6FE014500
:1000F00063E4C500918D558D85820582F5FA828075
:100100008682C93F2E8582823305A04063D70500D1
:10011000B305B040C1B7B305B0408682653F330533
:10012000A0408282868263C70500634905005D376F
:100130002E858282B305B040E35B05FE3305A04007
:10014000513F3305B0408282000001A0B707EFBEE7
:1001500037E700E0938707083CC701A0EFF25FF4A0
:1001600037140140130504809145EF00E061C1455B
:1001700013050440EF0000610DBFEFF27FF2211183
:1001800085451145EF00006285454145EF008061DE
:10019000854513050002EF00E060371401408947F0
:1001A00089447C866C0093078004130504403ECA92
:1001B00026C823170100A92313070004930780040E
:1001C0006C001305044078863ECA26C8152B91475B
:1001D0007C866C00C147130504803ECA26C80D23E7
:1001E000130504809145EF00E059C1476C003715B5
:1001F00001407C863ECA26C82123C14537150140EF
:100200005123C1476C00130504407C863ECA26C8B2
:10021000C52985450545EF00C05ADD477C808A85A4
:10022000FD57370500407C82231101002313010094
:1002300023140100EF00C05A854537050040EF0048
:10024000005F61019DB5EFF2BFE537150140130571
:1002500005402D230581134515000589B9B5EFF239
:100260003FE419C1E53D91B5371401401305048001
:100270009145092BC145130504403923EDB7EFF231
:100280003FE22A8411E015B5C14537150140ED293B
:100290002145E523C14537150140ED217D14214558
:1002A0004204E12B4180F9BFEFF29FDF2A8411E085
:1002B000EDBBC14537150140F12121457D2BC145DD
:1002C00037150140C1217D14214542047D23418021
:1002D000F9BFEFF2FFDC7145C13F31454D37F1B356
:1002E000EFF21FDC3945C9373145513F7DBBEFF295
:1002F0003FDB1305400E61371305400E753775B3AC
:10030000EFF21FDA3145A53F4DB3EFF27FD9130568
:10031000B002593F59BBEFF2BFD82A84A144CD3770
:1003200093178401E18763DA070065370604FD143B
:100330001374F40FF5F4D13F8DBB5D37C5BFEFF2F9
:100340003FD6753701441375F40FF1370504D147D3
:10035000E31BF4FE13052003B12B81BBEFF25FD446
:10036000793713050005453F130550046D37130514
:100370007005553713051002793F593713052003CF
:10038000152B25B3EFF2DFD12944C93B1305200318
:1003900015230145E935130520037D14212B75F440
:1003A00029B3EFF2FFCF3714014013050440F926BB
:1003B0001375050401C541657D15C5B9E137B7075A
:1003C000004023920702130404402285452E137532
:1003D0000504B707004015C13714014023920702F6
:1003E000130404402285592E13750504B7070040F5
:1003F00001EDCA3342054181C9B7DA338967938772
:100400000771E3F4E7FC45BFDA3389679387077127
:10041000E3FAE7FC4DB7EFF2BFC8613737070020BA
:10042000930647008E221181931705010946C18367
:1004300013074700638BC5020D456388A508054770
:1004400001456393E502938757F0C207C183130701
:10045000800F636BF700B707002023900702B707F0
:10046000002092A22391070289B1938667FFC206FA
:10047000C182130620036376D60085471EA301457B
:10048000E5B78517C207C183C94663EAF600B70717
:10049000002093872702962393E6160096A3B706BB
:1004A0000020938606029E228507C207C1839EA272
:1004B0009D4663F4F6008D47D1B7B70700209387B8
:1004C00027029A2306079AA35DBF9387D7FCC2072A
:1004D000C183F145E3E3F5FAB707002093872702CC
:1004E00092A296233707002023900700B707002029
:1004F0002313D702239007020545BDB7EFF25FBA79
:1005000037040020130444021E203707002013077D
:1005100007003E9703070700631AE5008507C20737
:10052000C1831EA011476395E700A93D2310040075
:10053000ADBEEFF2FFB60545912C370400206520D3
:1005400019262539093311C5DD3B093D1305800CFA
:100550009526D13565D9035564024D372535DDB76C
:10056000EFF21FB4371402401C403707FFF8414533
:1005700093E717001CC05C40F98F5CC01C40370734
:10058000F7FE7D17F98F1CC01C403707FCFF7D1755
:10059000F98F1CC05C4041777D17F98F5CC0B707AD
:1005A0009F001CC4FD221C4C93E707021CCCB7170C
:1005B000014003A70740938607401377F7F023A075
:1005C000E74003A707401367070823A0E7408947D0
:1005D0009CCAB72702409843719B98C3984398C31D
:1005E0005C405CC0D9B4EFF2BFAB371702405C434C
:1005F000370400209146B18B130484016385D70032
:10060000A1466380D704B7376E01938707601CC08B
:10061000B7160240DC420840918313F7F700B70792
:10062000002093878700BA978C23DC4293F5F50F5F
:1006300093F707083357B50099E3693C2A8718C038
:10064000ADB45C43B777DC02938707C0C9B701A09C
:10065000970100209381011D138101FE1305000AFB
:10066000970500209385059A1706002013068699A2
:1006700063FAC5008322050023A0550011059105EA
:10068000E3EAC5FE170500001305C52697050020FF
:1006900093854597170600201306C69863FAC50090
:1006A0008322050023A0550011059105E3EAC5FE4C
:1006B0001705002013050597938501816377B50021
:1006C000232005001105E36DB5FEB72200009382DB
:1006D0000288739002308D4273904280970200002E
:1006E0009382429293E2320073905230EFF05FE7D0
:1006F00097020000938222E473901234730020303A
:10070000944593F7060193F2F60081C7DC41B3E20A
:10071000F20083D3050093F7F30FA5C3032305006D
:10072000611122C226C08147130480029304800411
:1007300005473316F70033F7C3006312E6029395BB
:1007400027003D473317B7001347F7FF33736700A0
:10075000B395B20033E36500639D860050C98507F9
:100760002147E397E7FC12442320650082442101DE
:100770008280E39696FE10C9DDB782800845420567
:10078000418182800CC982804CC9828023A4A180CF
:100790008280371702401C430E0593F777F05D8D7A
:1007A00008C3828099C5371702401C4F5D8D08CF62
:1007B0008280B7170240984F1345F5FF798D88CF97
:1007C000828099C5371702405C4F5D8D48CF82808B
:1007D000B7170240D84F1345F5FF798DC8CF8280F7
:1007E0001E2137370140130707C0C207C1836306C4
:1007F000E500370700406316E500BA2193F7F7F8E4
:10080000D98FFA2193F7F7CFC207C183D98F1EA1E1
:10081000DE215EB59E211EB5B7370140938707C024
:100820006314F5009C251EB985475EA982801E21B0
:1008300089C593E717001EA18280C207C183F99B77
:10084000C207C183CDBFEFF2BF85B707002003A564
:100850008701B7157A0093850520EFF0BF871375E0
:10086000F50F2387A18093175500898F8A073E953E
:100870000E052396A1806FF05F83EFF27F8237F43D
:1008800000E05C40AA85F99B5CC003C5E180EFF005
:100890007F8208C8232404001C4093E717001CC073
:1008A000B7F700E0D843058B75DF9843799B98C371
:1008B0006FF0AFFFEFF2CFFE37F400E05C40AA85A7
:1008C000F99B5CC003D5C180EFF0CFFE08C823249C
:1008D00004001C4093E717001CC0B7F700E0D843A2
:1008E000058B75DF9843799B98C36FF00FFC000070
:1008F00050455721010000000102030405060708C6
:10090000010203040506070800366E01000000001E
:00000001FF
