:100000006F00E074000000004A0100004C01000095
:1000100000000000000000000000000000000000E0
:1000200000000000000000000000000000000000D0
:100030004C070000000000004C070000000000001A
:100040004C0700004C0700004C0700004C07000064
:100050004C0700004C0700004C0700004C07000054
:100060004C0700004C0700004C0700004C07000044
:100070004C0700004C0700004C0700004C07000034
:100080004C0700004C0700004C0700004C07000024
:100090004C0700004C0700004C0700000000000067
:1000A000511126C022C206C4828282441244A24058
:1000B000310182802A86014593F6150091C232955E
:1000C00085810606F5F9828000000000634E050276
:1000D00063C305042E86AA857D5515C285466378BF
:1000E000B6006356C00006068606E36CB6FE014500
:1000F00063E4C500918D558D85820582F5FA828075
:100100008682C93F2E8582823305A04063D70500D1
:10011000B305B040C1B7B305B0408682653F330533
:10012000A0408282868263C70500634905005D376F
:100130002E858282B305B040E35B05FE3305A04007
:10014000513F3305B0408282000001A0B707EFBEE7
:1001500037E700E0938707083CC701A0EFF25FF4A0
:1001600037140140130504809145EF00C071C1456B
:1001700013050440EF00E0700DBFEFF27FF2211194
:1001800085451145EF00E07185454145EF006071FF
:10019000854513050002EF00C07037140140894700
:1001A00089447C866C0093078004130504403ECA92
:1001B00026C823170100EF0080641307000493078B
:1001C00080046C001305044078863ECA26C8EF0000
:1001D000006391477C866C00C147130504803ECACA
:1001E00026C8EF00C061130504809145EF006069E7
:1001F000C1476C00371501407C863ECA26C8EF0017
:100200000060C14537150140EF00A067C1476C0091
:10021000130504407C863ECA26C8EF00405E854533
:100220000545EF00E069DD477C808A85FD5737058D
:1002300000407C82231101002313010023140100DC
:10024000EF00E069854537050040EF00206E610151
:10025000A9BDEFF2FFE43715014013050540EF009B
:10026000C061058113451500058981B5EFF25FE393
:1002700019C1ED351DBD37140140130504809145AA
:10028000EF002060C14513050440EF00C05FDDB7FB
:10029000EFF21FE12A8411E009BDC1453715014085
:1002A000EF00605E2145EF00206DC145371501402C
:1002B000EF00205D7D1421454204EF00E06B41809A
:1002C000D9BFEFF2FFDD2A8411E0C5B3C145371570
:1002D0000140452B2145EF00206AC14537150140FB
:1002E0004D237D1421454204EF0000694180E9BFA0
:1002F000EFF21FDB7145F1373145593F7DB3EFF226
:100300003FDA39457D3F3145613745B3EFF25FD97B
:100310001305400EB53F1305400E653779B3EFF274
:100320003FD83145B53751B3EFF29FD71305B0022F
:10033000493FA5BBEFF2DFD62A84A144CD379317FE
:100340008401E18763DA070065370604FD1413743E
:10035000F40FF5F4D13F91BB5D37C5BFEFF25FD429
:100360003714014013050440092B1375050401C51A
:1003700041657D151DBBB70700402392070213049A
:1003800004402285DD2913750504B707004015C117
:100390003714014023920702130404402285F129F7
:1003A00013750504B707004001EDCA3342054181CA
:1003B000D1B7DA33896793870771E3F4E7FC4DBF60
:1003C000DA33896793870771E3FAE7FC55B7EFF2F1
:1003D0003FCD693737070020930647008E221181F1
:1003E000931705010946C18313074700638BC502B4
:1003F0000D456388A508054701456393E50293878A
:1004000057F0C207C1831307800F636BF700B7076C
:10041000002023900702B707002092A22391070231
:1004200069B1938667FFC206C18213062003637613
:10043000D60085471EA30145E5B78517C207C183CE
:10044000C94663EAF600B707002093872702962380
:1004500093E6160096A3B7060020938606029E2216
:100460008507C207C1839EA29D4663F4F6008D47AF
:10047000D1B7B7070020938727029A2306079AA3CC
:100480005DBF9387D7FCC207C183F145E3E3F5FA6B
:10049000B70700209387270292A2962337070020F0
:1004A00023900700B70700202313D70223900702E9
:1004B0000545BDB7EFF2DFBE21112AC091472E8757
:1004C000054463FAC7002EC2328595452131124793
:1004D000131405014180824781441D8F9317070142
:1004E000C1873EC42245A685F136A285C53682471E
:1004F0003307F50037450F00931517001305052442
:100500003AC6C93E32472AC29305803E13152700DA
:100510003A95C9362A860147631BC70093871400A2
:1005200093940701C180E3EF84FA6101BDBE32CA32
:100530003AC82D313482368536C63D2901453D33D2
:10054000B24636851529424752460507F1B7EFF204
:100550003FB50565130680079305800C1305459C80
:10056000913FA1B6EFF2DFB31306400693050019E1
:1005700013050032813779452D291306400693056E
:100580006009130580253D37130580021D211306E0
:10059000000A9305C0031305E015293F39B6EFF2B1
:1005A0003FB0C93779453121553E7945192101457B
:1005B0007539E5BCEFF2DFAE3704002013044402C6
:1005C0001E2037070020130707003E970307070088
:1005D000631AE5008507C207C1831EA01147639512
:1005E000E700753F23100400C9B4EFF27FAB393B3D
:1005F00001441375F40F3D3B0504D147E31BF4FEA2
:100600006DB4EFF2FFA91933130500052533130567
:1006100050040D3313057005313B13051002193BCF
:10062000FD3913052003712649B4EFF27FA7054574
:10063000A92C370400206D2031268136193919C5BF
:100640006D3731377D3F1305800CA52649337DD5A5
:10065000035564028537DDB7EFF29FA437140240DB
:100660001C403707FFF8414593E717001CC05C406A
:10067000F98F5CC01C403707F7FE7D17F98F1CC04F
:100680001C403707FCFF7D17F98F1CC05C40417789
:100690007D17F98F5CC0B7079F001CC4D52A1C4C7E
:1006A00093E707021CCCB717014003A707409386C6
:1006B00007401377F7F023A0E74003A7074013672D
:1006C000070823A0E74089479CCAB7270240984300
:1006D000719B98C3984398C35C405CC06FF0FF9CCB
:1006E000EFF21F9C371702405C433704002091460D
:1006F000B18B130484016385D700A1466382D704BC
:10070000B7376E01938707601CC0B7160240DC4202
:100710000840918313F7F700B707002093878700FD
:10072000BA978C23DC4293F5F50F93F707083357FC
:10073000B50081E7EFF01F9A2A8718C06FF0FF9687
:100740005C43B777DC02938707C07DBF01A09701A8
:1007500000209381210D138101FE1305000A9705E6
:1007600000209385258A170600201306A68963FAC0
:10077000C5008322050023A0550011059105E3EA79
:10078000C5FE170500001305A526970500209385D3
:100790006587170600201306E68863FAC5008322E2
:1007A000050023A0550011059105E3EAC5FE1705D4
:1007B000002013052587938501816377B5002320E9
:1007C00005001105E36DB5FEB72200009382028893
:1007D000739002308D4273904280970200009382A2
:1007E000628293E2320073905230EFF0FFE697029C
:1007F00000009382C2E3739012347300203094455A
:1008000093F7060193F2F60081C7DC41B3E2F200F0
:1008100083D3050093F7F30FA5C3032305006111EC
:1008200022C226C081471304800293048004054736
:100830003316F70033F7C3006312E60293952700DF
:100840003D473317B7001347F7FF33736700B3957E
:10085000B20033E36500639D860050C985072147D8
:10086000E397E7FC12442320650082442101828043
:10087000E39696FE10C9DDB78280084542054181A6
:1008800082800CC982804CC9828023A4A18082808E
:10089000371702401C430E0593F777F05D8D08C3B0
:1008A000828099C5371702401C4F5D8D08CF82802A
:1008B000B7170240984F1345F5FF798D88CF828096
:1008C00099C5371702405C4F5D8D48CF8280B717BE
:1008D0000240D84F1345F5FF798DC8CF82801E2185
:1008E00037370140130707C0C207C1836306E5001D
:1008F000370700406316E500BA2193F7F7F8D98F60
:10090000FA2193F7F7CFC207C183D98F1EA1DE2149
:100910005EB59E211EB5B7370140938707C06314AB
:10092000F5009C251EB985475EA982801E2189C5D8
:1009300093E717001EA18280C207C183F99BC207FB
:10094000C183CDBFEFF2CFF5B707002003A5870124
:10095000B7157A0093850520EFF0CFF71375F50FE3
:100960002387A18093175500898F8A073E950E052E
:100970002396A1806FF06FF3EFF28FF237F400E06F
:100980005C40AA85F99B5CC003C5E180EFF08FF263
:1009900008C8232404001C4093E717001CC0B7F7C5
:1009A00000E0D843058B75DF9843799B98C36FF0BF
:1009B000CFEFEFF2EFEE37F400E05C40AA85F99B51
:1009C0005CC003D5C180EFF0EFEE08C8232404001B
:1009D0001C4093E717001CC0B7F700E0D843058B15
:0C09E00075DF9843799B98C36FF02FECF3
:1009EC0050455721010000000102030405060708C9
:1009FC00010203040506070800366E010000000022
:00000001FF
